S01400005375646F6B75536F6C7665722E737265631A
S11300000C942A000C9447000C9447000C94A40010
S11300100C9447000C9447000C9447000C94470040
S11300200C9447000C9447000C9447000C949A01DC
S11300300C9447000C94B4010C9447000C944700B2
S11300400C9447000C9447000C9447000C946500F2
S11300500C94470011241FBECFE5D4E0DEBFCDBF12
S113006010E0A0E6B0E0E4EFF5E002C005900D92E8
S1130070A23BB107D9F722E0A2EBB0E001C01D9288
S1130080A63BB207E1F70E9454000C94F8020C94CA
S1130090000086E880BD10BC80E489B98AB1806C18
S11300A08AB988E18AB908958FE58DBF84E08EBF4F
S11300B09FEF9ABB9BBB83BF86E98CBF89B78260E5
S11300C089BF0E9449007894FFCFCFB730E060E049
S11300D018C0832F90E0FC01EE0FFF1FEE0FFF1FEF
S11300E0EE0FFF1FE80FF91FE05AFF4FE20FF11D5B
S11300F0808181116F5F2F5F01C020E0293048F3B8
S11301003F5F3930D0F370E080E090E00E94FF015F
S11301102DEC3CEC4CEC5DE30E9463020E94CE01AA
S11301208BB38F3F61F4662351F08FEF90E0062E7E
S113013002C0880F991F0A94E2F78BBB02C08FEFAD
S11301408BBB12BECFBF18959FB7E091B400F0E00F
S1130150EA54FF4F80818E3409F45AC018F4813474
S113016041F0DBC08F3409F4E3C0833509F4E0C007
S1130170D4C0E091B400F0E0E954FF4F80818435AD
S1130180D9F5E091B400F0E0E854FF4F80818D3060
S113019099F5E091B400F0E0E754FF4F80818A3094
S11301A059F58091B4008C5F8093B400E091B20063
S11301B0F0E0EA54FE4F8FE48083E091B200EF5FF9
S11301C0E093B200F0E0EA54FE4F8BE48083E091C8
S11301D0B200EF5FE093B200F0E0EA54FE4F8DE02E
S11301E08083E091B200EF5FE093B200F0E0EA5464
S11301F0FE4F8AE080839CC0E091B400EF5FE093FF
S1130200B400F0E0EA54FF4F80818A34A9F790C02B
S1130210E091B400F0E0EA54FF4F8081843509F0A6
S113022070C0E091B400F0E0E654FF4F80818D305F
S113023009F067C0E091B400F0E0E554FF4F80811D
S11302408A3009F05EC08091B4008F5F8093B4005F
S1130250E82FEF70F0E0EB57FF4F20818091B4005E
S11302608F5F8093B400E82FEF70F0E0EB57FF4FFF
S1130270408130E0E091B400EF5FE093B400F0E03F
S1130280EA54FF4F80818F708053F901EE0FFF1FF6
S1130290EE0FFF1FEE0FFF1FE20FF31FE05AFF4F99
S11302A0E40FF11D80838091B4008E5F8093B400CD
S11302B0E091B200F0E0EA54FE4F8FE48083E091D5
S11302C0B20081E08E0F8093B200F0E0EA54FE4F5A
S11302D08BE48083E091B20081E08E0F8093B200C2
S11302E0F0E0EA54FE4F8DE08083E091B20081E0BB
S11302F08E0F8093B200F0E0EA54FE4F8AE08083D0
S113030017C0E091B400EF5FE093B400F0E0EA546A
S1130310FF4F80818A34A9F70BC0E091B400EF5FEE
S1130320E093B400F0E0EA54FF4F80818A34A9F7E7
S11303309FBF18952FB78091B5003091B40090E01D
S1130340831B9109811531E0930761F0E091B500B9
S1130350F0E08CB1EA54FF4F80838091B5008F5F49
S11303608093B5002FBF18952FB78091B3008823D1
S113037099F0E091B300F0E0EA54FE4F80818CB92B
S11303808091B30090E00196907899231CF4019732
S11303909F6F01968093B3002FBF18950E9442026D
S11303A088F09F5798F0B92F9927B751B0F0E1F032
S11303B0660F771F881F991F1AF0BA95C9F714C0E2
S11303C0B13091F00E945C02B1E008950C945C029B
S11303D0672F782F8827B85F39F0B93FCCF386951B
S11303E077956795B395D9F73EF490958095709578
S11303F061957F4F8F4F9F4F0895E89409C097FBF5
S11304003EF490958095709561957F4F8F4F9F4FE7
S11304109923A9F0F92F96E9BB279395F69587952B
S113042077956795B795F111F8CFFAF4BB0F11F4EE
S113043060FF1BC06F5F7F4F8F4F9F4F16C0882395
S113044011F096E911C0772321F09EE8872F762FCB
S113045005C0662371F096E8862F70E060E02AF00C
S11304609A95660F771F881FDAF7880F96958795F8
S113047097F9089557FD9058440F551F59F05F3F61
S113048071F04795880F97FB991F61F09F3F79F0B2
S113049087950895121613061406551FF2CF469534
S11304A0F1DF08C0161617061806991FF1CF8695B6
S11304B07105610508940895E894BB27662777279A
S11304C0CB0197F908950E9476020C94E7020E94EA
S11304D0D90238F00E94E00220F0952311F00C9428
S11304E0D0020C94D60211240C945D020E943A02AC
S11304F070F3959FC1F3950F50E0551F629FF00173
S1130500729FBB27F00DB11D639FAA27F00DB11D8B
S1130510AA1F649F6627B00DA11D661F829F222714
S1130520B00DA11D621F739FB00DA11D621F839F9B
S1130530A00D611D221F749F3327A00D611D231F71
S1130540849F600D211D822F762F6A2F11249F57BF
S113055050409AF0F1F088234AF0EE0FFF1FBB1FC2
S1130560661F771F881F91505040A9F79E3F510581
S113057080F00C94D0020C945D025F3FE4F3983E4B
S1130580D4F3869577956795B795F795E7959F5F2B
S1130590C1F7FE2B880F911D9695879597F90895BD
S11305A097F99F6780E870E060E008959FEF80EC22
S11305B0089500240A9416161706180609060895C5
S11305C000240A9412161306140605060895092E2B
S11305D00394000C11F4882352F0BB0F40F4BF2B9A
S11305E011F460FF04C06F5F7F4F8F4F9F4F0895DA
S10705F0F894FFCFA9
S11305F403000605000804000005020000000000D2
S113060400000008070000000003010000030001CB
S113061400000800090000080603000005000500A6
S113062400090006000001030000000002050000A8
S11306340000000000000704000005020006030097
S10506440000B0
S9030000FC
