S01400005375646F6B75536F6C7665722E737265631A
S11300000C942A000C9447000C9447000C9447006D
S11300100C9447000C9447000C9447000C94470040
S11300200C9447000C9447000C9447000C94A500D2
S11300300C9447000C94BF000C9447000C944700A8
S11300400C9447000C9447000C9447000C946500F2
S11300500C94470011241FBECFE5D4E0DEBFCDBF12
S113006010E0A0E6B0E0EAE0F4E002C005900D92F2
S1130070A23BB107D9F722E0A2EBB0E001C01D9288
S1130080A53BB207E1F70E9454000C9403020C94C0
S1130090000088E18AB986E880BD10BC80E489B993
S11300A08AB1806C8AB908958FE58DBF84E08EBFD4
S11300B09FEF9ABB9BBB83BF86E98CBF89B78260E5
S11300C089BF0E9449007894FFCFCFB730E060E049
S11300D019C0832F90E0FC01EE0FFF1FEE0FFF1FEE
S11300E0EE0FFF1FE80FF91FE05AFF4FE20FF11D5B
S11300F08081811101C06F5F2F5F01C020E0293032
S113010040F33F5F3930D0F370E080E090E00E942C
S11301100A012DEC3CEC4CEC5DE30E946E010E9464
S1130120D9008BB38F3F61F4662351F08FEF90E0D9
S1130130062E02C0880F991F0A94E2F78BBB02C0F7
S11301408FEF8BBB12BECFBF18952FB78091B40031
S11301503091B30090E0831B9109811531E093073E
S113016061F0E091B400F0E08CB1EB54FF4F808378
S11301708091B4008F5F8093B4002FBF18952FB780
S11301808091B200882399F0E091B200F0E0EB5442
S1130190FE4F80818CB98091B20090E001969078F6
S11301A099231CF401979F6F01968093B2002FBF8F
S11301B018950E944D0188F09F5798F0B92F992700
S11301C0B751B0F0E1F0660F771F881F991F1AF03E
S11301D0BA95C9F714C0B13091F00E946701B1E03B
S11301E008950C946701672F782F8827B85F39F03A
S11301F0B93FCCF3869577956795B395D9F73EF4D7
S113020090958095709561957F4F8F4F9F4F08957E
S1130210E89409C097FB3EF490958095709561959C
S11302207F4F8F4F9F4F9923A9F0F92F96E9BB2752
S11302309395F695879577956795B795F111F8CFCE
S1130240FAF4BB0F11F460FF1BC06F5F7F4F8F4F39
S11302509F4F16C0882311F096E911C0772321F02F
S11302609EE8872F762F05C0662371F096E8862FC7
S113027070E060E02AF09A95660F771F881FDAF71E
S1130280880F9695879597F9089557FD9058440FD0
S1130290551F59F05F3F71F04795880F97FB991FE1
S11302A061F09F3F79F0879508951216130614069E
S11302B0551FF2CF4695F1DF08C01616170618062B
S11302C0991FF1CF86957105610508940895E89406
S11302D0BB2766277727CB0197F908950E948101F0
S11302E00C94F2010E94E40138F00E94EB0120F02A
S11302F0952311F00C94DB010C94E10111240C946E
S113030068010E94450170F3959FC1F3950F50E079
S1130310551F629FF001729FBB27F00DB11D639FB3
S1130320AA27F00DB11DAA1F649F6627B00DA11D59
S1130330661F829F2227B00DA11D621F739FB00DFF
S1130340A11D621F839FA00D611D221F749F33276F
S1130350A00D611D231F849F600D211D822F762F08
S11303606A2F11249F5750409AF0F1F088234AF0E5
S1130370EE0FFF1FBB1F661F771F881F9150504051
S1130380A9F79E3F510580F00C94DB010C946801A1
S11303905F3FE4F3983ED4F3869577956795B795D8
S11303A0F795E7959F5FC1F7FE2B880F911D9695F2
S11303B0879597F9089597F99F6780E870E060E062
S11303C008959FEF80EC089500240A9416161706EA
S11303D018060906089500240A9412161306140632
S11303E005060895092E0394000C11F4882352F095
S11303F0BB0F40F4BF2B11F460FF04C06F5F7F4F4D
S10D04008F4F9F4F0895F894FFCF2B
S113040A03000605000804000005020000000000BD
S113041A00000008070000000003010000030001B7
S113042A0000080009000008060300000500050092
S113043A0009000600000103000000000205000094
S113044A0000000000000704000005020006030083
S105045A00009C
S9030000FC
